{
  "contractName": "MathOperations",
  "abi": [
    {
      "constant": false,
      "inputs": [
        {
          "internalType": "int256",
          "name": "_addedVal",
          "type": "int256"
        }
      ],
      "name": "add",
      "outputs": [
        {
          "internalType": "int256",
          "name": "",
          "type": "int256"
        }
      ],
      "payable": false,
      "stateMutability": "nonpayable",
      "type": "function"
    },
    {
      "constant": false,
      "inputs": [
        {
          "internalType": "int256",
          "name": "_subtractedVal",
          "type": "int256"
        }
      ],
      "name": "subtract",
      "outputs": [
        {
          "internalType": "int256",
          "name": "",
          "type": "int256"
        }
      ],
      "payable": false,
      "stateMutability": "nonpayable",
      "type": "function"
    },
    {
      "constant": false,
      "inputs": [
        {
          "internalType": "int256",
          "name": "_multiplyVal",
          "type": "int256"
        }
      ],
      "name": "multiply",
      "outputs": [
        {
          "internalType": "int256",
          "name": "",
          "type": "int256"
        }
      ],
      "payable": false,
      "stateMutability": "nonpayable",
      "type": "function"
    },
    {
      "constant": false,
      "inputs": [
        {
          "internalType": "int256",
          "name": "_divideVal",
          "type": "int256"
        }
      ],
      "name": "divide",
      "outputs": [
        {
          "internalType": "int256",
          "name": "",
          "type": "int256"
        }
      ],
      "payable": false,
      "stateMutability": "nonpayable",
      "type": "function"
    },
    {
      "constant": false,
      "inputs": [
        {
          "internalType": "uint256",
          "name": "_powerVal",
          "type": "uint256"
        }
      ],
      "name": "power",
      "outputs": [
        {
          "internalType": "int256",
          "name": "",
          "type": "int256"
        }
      ],
      "payable": false,
      "stateMutability": "nonpayable",
      "type": "function"
    },
    {
      "constant": false,
      "inputs": [
        {
          "internalType": "int256",
          "name": "_value",
          "type": "int256"
        }
      ],
      "name": "setValue",
      "outputs": [
        {
          "internalType": "int256",
          "name": "",
          "type": "int256"
        }
      ],
      "payable": false,
      "stateMutability": "nonpayable",
      "type": "function"
    },
    {
      "constant": true,
      "inputs": [],
      "name": "getValue",
      "outputs": [
        {
          "internalType": "int256",
          "name": "",
          "type": "int256"
        }
      ],
      "payable": false,
      "stateMutability": "view",
      "type": "function"
    }
  ],
  "bytecode": "0x608060405234801561001057600080fd5b50610345806100206000396000f3fe608060405234801561001057600080fd5b506004361061007d5760003560e01c806387db03b71161005b57806387db03b714610124578063aaa044dc14610166578063ae0f6166146101a8578063cc193fb0146101ea5761007d565b80631df4f1441461008257806320965255146100c45780635093dc7d146100e2575b600080fd5b6100ae6004803603602081101561009857600080fd5b810190808035906020019092919050505061022c565b6040518082815260200191505060405180910390f35b6100cc610247565b6040518082815260200191505060405180910390f35b61010e600480360360208110156100f857600080fd5b8101908080359060200190929190505050610250565b6040518082815260200191505060405180910390f35b6101506004803603602081101561013a57600080fd5b8101908080359060200190929190505050610263565b6040518082815260200191505060405180910390f35b6101926004803603602081101561017c57600080fd5b810190808035906020019092919050505061027e565b6040518082815260200191505060405180910390f35b6101d4600480360360208110156101be57600080fd5b81019080803590602001909291905050506102a0565b6040518082815260200191505060405180910390f35b6102166004803603602081101561020057600080fd5b81019080803590602001909291905050506102bb565b6040518082815260200191505060405180910390f35b60008160008082825402925050819055506000549050919050565b60008054905090565b6000816000819055506000549050919050565b60008160008082825401925050819055506000549050919050565b6000816000808282548161028e57fe5b05925050819055506000549050919050565b60008160008082825403925050819055506000549050919050565b6000808214156102d2576001600081905550610306565b6000805490506000600190505b838110156103035781600080828254029250508190555080806001019150506102df565b50505b600054905091905056fea265627a7a72315820eb10193c4f2c8e9b3abb1e626a4eb49e5549eb9c20f266fae2da8e18799a14f164736f6c63430005100032",
  "source": "pragma solidity >=0.4.22 <0.8.0;\n\n\n\ncontract MathOperations {\n    int private value;\n\n    function add(int _addedVal) public returns (int) {\n        value += _addedVal;\n        return value;\n    }\n\n    function subtract(int _subtractedVal) public returns (int) {\n        value -= _subtractedVal;\n        return value;\n    }\n\n    function multiply(int _multiplyVal) public returns (int) {\n        value *= _multiplyVal;\n        return value;\n    }\n\n    function divide(int _divideVal) public returns (int) {\n        value /= _divideVal;\n        return value;\n    }\n\n    function power(uint _powerVal) public returns (int) {\n        if(_powerVal == 0) {\n            value = 1;\n        } else {\n        int currentVal = value;\n        // Loop is used because exponential operator is not allowed for ints.\n        for(uint i = 1; i < _powerVal; i++) {\n            value *= currentVal;\n        }\n        }\n        return value;\n    }\n\n    function setValue(int _value) public returns (int) {\n        value = _value;\n        return value;\n    }\n\n    function getValue() public view returns (int) {\n        return value;\n    }\n}",
  "sourcePath": "/Users/ianbrighton/Documents/Blockchain/github-projects/truffle-tests-with-chai/contracts/MathOperations.sol",
  "compiler": {
    "name": "solc",
    "version": "0.5.16+commit.9c3226ce.Emscripten.clang"
  },
  "schemaVersion": "3.3.2",
  "updatedAt": "2020-12-06T00:18:32.919Z",
  "networkType": "ethereum",
  "devdoc": {
    "methods": {}
  },
  "userdoc": {
    "methods": {}
  }
}